:020000040800F2
:10000000D0970920A1020008711F0008711D000887
:100010006F1F000825160008A52C0008000000002E
:100020000000000000000000000000001B29000884
:100030003D1900080000000059250008DD290008CE
:10004000BB020008BB020008BB020008BB0200089C
:10005000BB020008BB02000851190008BB020008DF
:10006000BB020008BB020008BB020008BB0200087C
:10007000BB020008BB020008BB020008BB0200086C
:10008000BB020008BB020008BB020008BB0200085C
:10009000BB020008BB020008BB020008BB0200084C
:1000A000BB020008BB020008BB020008BB0200083C
:1000B000BB020008BB020008BB020008BB0200082C
:1000C000BB020008BB020008BB020008BB0200081C
:1000D000BB020008BB020008BB020008BB0200080C
:1000E000BB020008BB020008BB020008BB020008FC
:1000F000BB020008BB020008BB020008BB020008EC
:10010000BB020008BB020008BB020008BB020008DB
:10011000BB020008BB020008BB020008BB020008CB
:10012000BB020008BB020008BB020008BB020008BB
:10013000BB020008BB020008BB020008BB020008AB
:10014000BB020008BB020008BB020008BB0200089B
:10015000BB020008BB020008BB020008BB0200088B
:10016000BB020008BB020008BB020008BB0200087B
:10017000BB020008BB020008BB020008BB0200086B
:10018000BB020008BB02000800F002F800F079F89A
:100190000AA090E8000C82448344AAF10107DA45E2
:1001A00001D100F06EF8AFF2090EBAE80F0013F0BB
:1001B000010F18BFFB1A43F001031847202F00005E
:1001C000402F000010F8013B0A4413F0030408BF5D
:1001D00010F8014B1D1108BF10F8015B641E05D01B
:1001E00010F8016B641E01F8016BF9D1002D15D0D8
:1001F00010F8014B03F00C030C2BA1EB04040ABF15
:1002000010F8013BA4EB8314A4EB032405F10103D4
:1002100014F8016B5B1E01F8016BF9D5914238BFF0
:1002200010F8013BD1D3704700230024002500269D
:10023000103A28BF78C1FBD8520728BF30C148BF49
:100240000B607047642900F0CF80732900F03F8471
:10025000002070471FB502F00DFF9DE8030000F07D
:100260004FFD00F0EBFF04000020002102F0ECFE47
:10027000401C606000F0EEFE1FBD10B500F053FFA3
:1002800010BD00F0B5FF1146FFF7E4FF02F09AFD44
:1002900001F0CEF803B4FFF7F0FF03BC01F09CF9C6
:1002A0000948804709480047FEE7FEE7FEE7FEE70A
:1002B000FEE7FEE7FEE7FEE7FEE7FEE70448054946
:1002C000054A064B70470000E12900088901000833
:1002D000D0910920D0970920D0930920D0930920EC
:1002E0000FB4044910B503AA029800F0F5FB10BC46
:1002F0005DF814FBC49009200FB41CB50C0007AACC
:10030000009001D02044401E074B7B446946019079
:10031000069800F0AAFB002C03D06946002000F0EC
:10032000B7FB1CBC5DF814FB8D0700002DE9F04104
:100330000E460446002020622046E168884730B31C
:10034000252805D0D4E901219047206A401CF2E716
:10035000E168204600278847050018D0A5F1410034
:10036000192802D820354FF4006732462946204626
:100370002760FFF767FF40B1012804D0F61D26F083
:1003800007060836D8E7361DD6E72846DAE7206A9A
:10039000BDE8F08170B50C460546012A05D02878E5
:1003A000800600D5EA69002302E0012305E05B1C1A
:1003B000934202D2E05C0028F9D1A869E618C01A7D
:1003C000A861286A184428622846AFF3008004E038
:1003D000D5E9012114F8010B9047B442F8D328461F
:1003E000AFF3008070BD00002DE9F0410646002407
:1003F00010687529314616A511D0AFF3008000288A
:1004000003DAC0F1000013A507E031688A0701D5BF
:1004100011A502E0490704D510A5012401E0AFF3BE
:10042000008000210A2306F1240707E0B0FBF3F265
:1004300003FB1200303078541046491C0028F5D1D7
:1004400023462A463046BDE8F04100F0ADBA000030
:10045000000000002D0000002B0000002000000024
:1004600070B5064600F046FA0468054630460A2292
:10047000002100F043FB2C6070BD00002DE9F0412D
:10048000044616460D464769007B80072ED0384645
:1004900000F01CFA50BB3EB3012E02D0022E25D133
:1004A00004E0204600F066F805441DE0384600F000
:1004B0001BFAE168002841F01001E16005DA2046EE
:1004C00000F054FB0120BDE8F081C9030BD5626840
:1004D000E16A914200D81146A26911442269891A41
:1004E000814200DD08460544002D01DA0220EAE7DA
:1004F000E16A6068E268814206D29103E06203D556
:1005000022F4003141F01002A6690027AE4213DC4C
:10051000E16A814201D90B4600E0034603EB060C79
:100520002369ACEB030CAC4506DD814201D98C4656
:1005300000E084469C4505D1A760276042F020007A
:10054000A5620DE0AD1BE669AE1B8142A66000D935
:100550000846C01A281A20605819606022F020004E
:1005600003490840E060002084F84870ABE70000D1
:10057000BFCFD7FF10B50146C268900703D09006E1
:1005800007D5886A0BE000F0B5F901210160881EEB
:1005900010BD8B69486818440B69A0EB030091F803
:1005A000483023B191F84910A0EB010010BD1103B0
:1005B000FCD50028FADD401E10BD2DE9F04198461B
:1005C0001746044602FB01F609B100250AE0104671
:1005D000BDE8F08114F8010B414602F093FB401C8A
:1005E000F6D06D1CB542F5DB3846F1E72DE9F04158
:1005F0000C4607461646104600F06EF82078611C3F
:1006000061280AD0722802D077283CD102E0012567
:10061000002405E00225042402E0082448F2020533
:1006200011F8010B2B2806D0622809D011F8010C13
:1006300074280AD00BE045F0030544F00204EFE70C
:1006400045F0040544F00104EAE744F0100438469C
:10065000214600F01CF9411C15D000213161716068
:100660004FF40071F560F1617061200704D53046E8
:1006700002220021FFF702FF306D40F001003065DB
:100680003046BDE8F0810020FBE72DE9F0410D4642
:100690000646104C206DC10704D0410804D020F05C
:1006A0000104F7E722460EE0542000F027F9070086
:1006B0000ED0206D47F001010843542120653846D3
:1006C00000F0CCFA3A4629463046BDE8F0418DE7C5
:1006D0000020D6E7709009202DE9F04704464FF03E
:1006E00000094FF0FF37C568D4E90486A80707D092
:1006F000204600F06FFA304600F0D3F8002802DA06
:100700003846BDE8F087280502D5404600F025F9B7
:100710004C21204600F0A2FA206D20F00100206557
:100720004846EEE740EA0103024630B59B0710D188
:100730004FF0013400E008C208C91D1B9D4315EAB3
:10074000C41FF8D013F0FF0102F8011B0DD01B0AE3
:10075000F8E711F8013B002B02F8013B05D011F836
:10076000013B002B02F8013BF3D130BD10B5431C17
:1007700002E010F8011B71B18107FAD14FF001328C
:1007800002C88C1A8C4314EAC211F9D0C01A0A06A6
:1007900003D0C01E10BDC01A10BD0A0401D0801EB7
:1007A00010BD0902FCD0401E10BD421E12F8013FD0
:1007B000002BFBD111F8013B002B02F8013BF9D1D2
:1007C00070474FF000020429C0F0128010F0030CB3
:1007D00000F04682CCF1040CBCF1020F18BF00F807
:1007E000012BA8BF20F8022BA1EB0C0100F038BAB6
:1007F0005FEAC17C24BF00F8012B00F8012B48BF41
:1008000000F8012B704700004FF0013C50F8042B1A
:1008100051F8043B9A4221D1A2EB0C03934313EA13
:10082000CC1317D150F8042B51F8043B9A4215D140
:10083000A2EB0C03934313EACC130BD150F8042B17
:1008400051F8043B9A4209D1A2EB0C03934313EAFB
:10085000CC13DBD04FF00000704700BFD01A01BAB4
:10086000B1FA81F101F0180122FA01F0CB40C1F197
:100870002001DBB2C0B2C01A2CFA01F3D11A9143A5
:1008800011EAC311E6D170477047704770470EB543
:10089000CDE90001FFF76AFF029069460120ABBE77
:1008A0000EBD08B5694600900220ABBE08BD1FB55D
:1008B0008DE8070069460520ABBE04B010BD1FB52A
:1008C0008DE80F0069460620ABBEF6E708B569461D
:1008D00000900920ABBE08BD1CB5CDE900016946FA
:1008E0000A20ABBE1CBD704708B5694600900C20BD
:1008F000ABBE08BD004870476C91092070B5064634
:1009000000F0E2F9056806F10B0020F00704B4429C
:100910009CBF002070BD2B466A68BAB11068A04227
:1009200010D304F1080188423CBF5068586007D3D7
:100930005168101941601168091B0160586014600A
:10094000101D70BD13465268002AE7D12146284683
:1009500000F0C2F90028DED170BD70B50446051F55
:1009600000F0B2F90068002C14BF446870BD002C80
:1009700018BFAC423CBF20466468F8D301680A182F
:10098000AA4218BF456003D12A6805461144016098
:1009900028684119A1421CBF6C6070BD6168696024
:1009A00021680844286070BD2DE9F0470D4699463E
:1009B0009246044600F124080168880604D5E069DF
:1009C00021F01001216000E00120A84202DDA0EB2F
:1009D000050700E00027A16907EB050202EB09000B
:1009E000A1EB0000A0612078C00602D42046AFF33E
:1009F0000080002608E0D4E901211AF8060090479B
:100A0000206A401C761C20624E45F4DB2078C0062C
:100A10000AD52046AFF3008006E0D4E9012130205A
:100A20009047206A401C2062381EA7F10107F4DCC1
:100A300007E0D4E9012118F805009047206A401C1E
:100A40002062281EA5F10105F3DC2046AFF30080EB
:100A50002078000602D50220BDE8F0870120FBE7E0
:100A600001694A1C02610878704700B58FB0CDE972
:100A700001310021059105497944CDE90310114662
:100A80006846FFF753FC0FB000BD0000E5FFFFFF15
:100A90000A6802F8010B0A607047D1E900239A4204
:100AA00002D2531C0B601070704710B5436913B12C
:100AB000AFF3008001E0FFF76DFC012010BD12785C
:100AC00000F124010A7000224A700122EDE711684A
:100AD0004FF0FF32E9E70000074B70B50D467B444D
:100AE000FFF7C3FF0446284600F08FF910B14FF01E
:100AF000FF3070BD204670BD232200002DE9F04775
:100B000091460F4680460446002614F8015B2DB13D
:100B100000F0D2F80068405DC007F6D12B2D02D05E
:100B20002D2D18D0641E4A463946204600F01EF985
:100B300027B13968A14201D1C7F800804FF0020403
:100B400071050BD54042002803DDFFF7D3FE04609A
:100B5000A007BDE8F08746F48066E4E70028F8DAED
:100B6000FFF7C8FE04606FF00040F2E7C16821F4AF
:100B7000001141F08001C160002181600160704777
:100B80002DE9F047814614460E464FF0FF383248B3
:100B9000D5685769054209D03846A169FFF79CFE20
:100BA000002811DB2C48C0430540E5602B46324647
:100BB00049463846FFF77BFEA16920F00042B21A91
:100BC00011440028A16103D02046FFF7CFFF404623
:100BD000BDE8F08770B504460569C06A616888425F
:100BE00000D80846E16821F42011E160C90312D55C
:100BF000A84208D02246411B2846FFF7C1FF10B18A
:100C00004FF0FF3070BD0020E562C4E90150E0689C
:100C100020F48030E060002070BD10B50446C0684C
:100C200020F02000E060A16AA06988420DD0204633
:100C3000FFF7D0FFE06820F4405040F01000E06083
:100C4000A06AA0612069E062606044F24001E0684F
:100C50008843E06010BD0000100002004FF0000269
:100C600000B5134694469646203922BFA0E80C50A2
:100C7000A0E80C50B1F12001BFF4F7AF090728BF7D
:100C8000A0E80C5048BF0CC05DF804EB890028BFF9
:100C900040F8042B08BF704748BF20F8022B11F022
:100CA000804F18BF00F8012B7047000000487047C4
:100CB0006C9109207047000010B500F0BFFA001DCC
:100CC00010BD00BF852300000048704774910920C3
:100CD000704770477047704738B504460A46002091
:100CE0006946AFF30080002808BF38BD024600996E
:100CF000204600F0A7FA012038BD012000F0A5BB76
:100D0000F8B5AFF30080054600200C46102000BF68
:100D10000646A819A0420DD9324669460020AFF315
:100D20000080070008BF00F090FB0098A04218BFA9
:100D30000546C419FFF7C8FF05600746F01D20F0FF
:100D400007004619284600F00AF8B44208BFF8BD6B
:100D5000A21B31463868BDE8F84000F073BA0021A4
:100D60000160C0E901107047102070472DE9F05F65
:100D7000824615468B4600270AF10104B9460078E1
:100D8000302801D09DB113E014F8010B0127782819
:100D900003D0582801D045B10AE00DB1102D07D17C
:100DA000002714F8010B102502E0082500E00A25B1
:100DB0000026B0460EE005FB080005FB06F1012702
:100DC0001FFA80F801EB1046B6F5803F00D3B94614
:100DD00014F8010B294600F04FFA0028EBDABBF1BA
:100DE000000F05D00FB1641E00E05446CBF8004060
:100DF000B9F1000F06D0FFF77DFD02210160C81E8A
:100E0000BDE8F09F48EA0640FAE7007B00F080006A
:100E1000704770B50D4601461446D36850692A469E
:100E2000FFF74DFD002807DA411C07D0E16820F0EC
:100E3000004041F48041E160281A70BD2046FFF770
:100E400095FE4FF0FF3070BDC1680022026021F4B2
:100E5000805141F0400111F4C06FC16001D0826047
:100E6000704702694168891AC269891A81607047AE
:100E70002DE9F0470446C06840F48000E0600103BB
:100E800013D520F40020E060810607D4E26A61688F
:100E90008A4200D80A46A2EB0101216040F400100A
:100EA000E06094F82500BDE8F08720F40010E060D1
:100EB000800602D52046FFF7B0FEE06842F28101CD
:100EC0004FF0FF390140012903D02046FFF74EFEC5
:100ED000B8E02168002600290ADAC94340F48050AE
:100EE0002160C4E902606068411C61600078DAE753
:100EF00044F2400108420ED020F4A04040F04000EF
:100F00002660E06021696068A0EB0100E169A0EB68
:100F10000100A06096E0216991B9C00310D4E06996
:100F2000FFF7ECFC2061B0B1E06840F4006010F421
:100F3000407FE06002D140F48070E0602069606032
:100F4000E068D4F814A0C1061AD5C0030ED5204617
:100F5000FFF740FE14E004F1240020610120E0616D
:100F6000E06820F4407040F48060E6E72169606842
:100F7000401AA16901445046FFF7AEFC0028A4DBEB
:100F8000E068C0032AD56168E06A884200D8084654
:100F90002169451AE069471B1BD02046D4F8188008
:100FA000FFF718FE08EB05015046C4F81880FFF75C
:100FB00093FC002889DBE06840F40030E060000228
:100FC00002D5A0692844A061E1692069C91B4518C0
:100FD0000DE02046FFF7FEFDE769F5E7256961684A
:100FE000D4E90607491BE56208446560A061E06832
:100FF00020F0100010F4C06FE06002D0204600F036
:10100000FBF9E06840F48050C4E90260000205D5B5
:101010002069E06260606FF0010044E722463946D3
:101020002846FFF7F6FE411C0CD02918E16258B1A2
:10103000401E2060681C6060E06840F40030E060A2
:10104000287830E748462EE765602046FFF7FCFE2B
:10105000F8E7000010B542485421FFF7FFFD414872
:101060005421FFF7FBFD40485421FFF7F7FD3F49AE
:101070003B483C4A3F4B08603D490A603A49196089
:10108000531C0365481C1065012008653B48344A21
:1010900039A17844FFF7AAFA20B9384878440A38C9
:1010A00000F0CCF937482F4A35A17844FFF79EFA73
:1010B00020B9344878440A3800F0C0F932482A4A46
:1010C0002FA17844FFF792FA20B92F4878440A38C4
:1010D00000F0B4F940232248DC000021224600F051
:1010E000D9F820B125487844543800F0A7F91D48B4
:1010F00022464023002100F0CDF820B12148784459
:10110000543800F09BF9184822461023002100F0C3
:10111000C1F8002806D01C487844BDE81040563875
:1011200000F08CB910BD104870B5006D20F00104BE
:101130000B48FFF7D1FA0B48FFF7CEFA0A48FFF742
:10114000CBFA09E0206D20F001052046FFF7C4FA34
:101150002046FFF702FC2C46002CF3D170BD0000A6
:1011600070900920C490092018910920482000207F
:101170004C20002050200020720000003820000089
:1011800077000000242000001020000010B5203A55
:10119000C0F00B80B1E81850203AA0E81850B1E830
:1011A0001850A0E81850BFF4F5AF5FEA027C24BFE6
:1011B000B1E81850A0E8185044BF18C918C0BDE8DD
:1011C00010405FEA827C24BF51F8043B40F8043BA6
:1011D00008BF7047D20728BF31F8023B48BF11F85B
:1011E000012B28BF20F8023B48BF00F8012B7047B5
:1011F0007546FFF75BFDAE4605006946534620F095
:101200000700854618B020B5FFF758F8BDE8204024
:101210004FF000064FF000074FF000084FF0000BB2
:1012200021F00701AC46ACE8C009ACE8C009ACE865
:10123000C009ACE8C0098D467047000000487047FF
:101240008C910920034640688C46002818BF8842CC
:101250003CBF03464068F8D318681844884207D05A
:101260000CF1030020F00700001D411A521A01463C
:10127000081D0A60FFF771BB3A2800D2303820F011
:101280002002412A01D3A2F13700884201D34FF056
:10129000FF30704770B5C468A50713D0650211D43C
:1012A000B2F5807F09D0B2F5007F06D0B2F5806F2D
:1012B00008D1012300F1240106E05D1E6FF07F4696
:1012C000B54201D3012070BD0161C361416024F4C6
:1012D00070611143C160002070BD2DE9FF5F1C46A5
:1012E0008B460646080068D00025029928462768E4
:1012F0000BFB01F965E0002F65DCE069484541DA48
:10130000BAF1000F3ED0207B800601D5A06A04E030
:10131000A169606808442169401A2246A9EB0501C9
:1013200080463046FFF775FD002814DD4FF00007BA
:101330008044A8F101010644A161226916F8011C4C
:1013400005441170216901F10101E1626160E16808
:1013500041F40031E160411C03D010B1207B400614
:1013600044D52046FFF770FDC4F8188020696060FE
:10137000E062E068276020F40030E060E06940420D
:10138000A06018E0484503DAE06840F40000E0603F
:101390002046FFF76DFDE16821F40001E160411C8A
:1013A00008D0811C0CD02768002809DB6D1C06F8CA
:1013B000010B1BE02760B5FBFBF004B0BDE8F09F1C
:1013C0000120824612E0A9EB0500B846B84200DAD7
:1013D000804630464246616800F0B8F86168A7EB85
:1013E0000807464401EB0800454460604D4582DB38
:1013F00027600298E1E7000070B5054640F202263A
:101400000A4C0FE094F85000C00708D0AC4206D058
:10141000E06836EA000002D1204600F01DF8206D99
:1014200020F00104002CEDD170BD00007090092067
:101430000446AFF300802046FEF72CFF10B500F005
:1014400043F8BDE8104000F039B810B500F056F888
:10145000BDE8104000F032B870B50446C06881079E
:1014600013D0800601D5A56A04E0A169606808442C
:101470002169451A2046FFF7ADFB002206462946A2
:101480002046FEF7FBFF304670BD002070BD70B5F2
:1014900010B1BDE87040DFE70025074C6E1E07E085
:1014A0002046FFF7D9FF00B13546206D20F001043A
:1014B000002CF5D1284670BD70900920002801D07D
:1014C00000F08AB87047000010B5014602A000F095
:1014D00089F8012010BD0000534947525452454439
:1014E0003A2052656469726563743A2063616E27BD
:1014F00074206F70656E3A200000000010B501285E
:1015000005D0002103A000F06DF8012010BD09A155
:10151000F8E7000053494752544D454D3A204F7566
:1015200074206F662068656170206D656D6F7279DB
:10153000000000003A2048656170206D656D6F7293
:101540007920636F7272757074656400032A40F2CB
:10155000308010F0030C00F0158011F8013BBCF155
:10156000020F624498BF11F801CB00F8013B38BF6D
:1015700011F8013BA2F1040298BF00F801CB38BF7B
:1015800000F8013B11F003033FF400AE083AC0F04D
:10159000088051F8043B083A51F804CBA0E8081041
:1015A000F5E7121D5CBF51F8043B40F8043BAFF374
:1015B0000080D20724BF11F8013B11F801CB48BFCE
:1015C00011F8012B24BF00F8013B00F801CB48BF04
:1015D00000F8012B7047000001491820ABBEFEE760
:1015E0002600020070B505460C460A2000E06D1C7E
:1015F00000F011F835B128780028F8D102E0641C19
:1016000000F009F814B120780028F8D1BDE8704046
:101610000A20AFF3008008B569468DF8000003206A
:10162000ABBE08BDFEE700002B4810B501780129CC
:1016300051D14078092845D2DFE800F04405440E36
:10164000172029323B0000F0C7FC012000F076FD96
:10165000BDE8104000F042BE00F0BEFC032000F0E8
:101660006DFDBDE8104000F005BE00F0B5FC0420A3
:1016700000F064FDBDE8104000F016BE00F0ACFCC8
:10168000052000F05BFDBDE8104000F03FBE00F01B
:10169000A3FC062000F052FDBDE8104000F09CBD08
:1016A00000F09AFC072000F049FDBDE8104000F072
:1016B000ADBD00F091FC082000F040FDBDE81040F9
:1016C00000F0BEBD00F088FC022000F037FDBDE850
:1016D000104000F033BE10BD340000201CB50121C5
:1016E000402000F03BFFC020009002208DF8050054
:1016F00001208DF8040000218DF806100E4C8DF8A5
:1017000007006946204600F0C5FA4021204600F057
:1017100024FB0A2000F014F94021204600F01BFBB6
:101720008021204600F017FB0A2000F009F98021F3
:10173000204600F012FB1CBD00180240054900289D
:10174000086802D040F0010001E020F001000860CC
:10175000704700000000055005490028086802D0C5
:1017600040F4804001E020F48040086070470000B1
:101770000000055030B50D4A116844F20103994349
:101780001160136840F6F2718B4301884488C58864
:10179000214384882C43214304892143448980893F
:1017A000214301431943116030BD00000000055082
:1017B0000029016802D041F0010101E021F001019E
:1017C000016070472DE9F043016821F001010160DB
:1017D0000021016041608160C1600161212141619E
:1017E0003C493C4A3D251039904202D18D60BDE80C
:1017F000F083384A4FF474661832904201D18E60FB
:10180000F5E7344A4FF474173032904201D18F60BB
:10181000EDE7304A4FF0746C4832904202D1C1F883
:1018200008C0E4E72B4B2C4A6033984201D1CA60D0
:10183000DDE7284C294B7834A04201D1CB60D6E7B4
:10184000DFF89080264C08F19008404501D1CC602B
:10185000CDE7DFF880804FF03D5908F1A8084045FA
:1018600002D1C1F80C90C2E71E49DFF87880083930
:10187000404501D10D60BAE71A4D1835A84201D193
:101880000E60B4E7174D3035A84201D10F60AEE7C6
:10189000144D4835A84202D1C1F800C0A7E7114D48
:1018A00010496035091FA84201D10A609FE70D4A1F
:1018B0007832904201D10B6099E70A4A9032904207
:1018C00001D10C6093E7074AA83290428FD1C1F84A
:1018D00000908CE7106002403D000020400F002087
:1018E00000003D201064024030B50368124ACC6805
:1018F00013400A682243D1E905452C432243CC69B1
:1019000022430C6A22434C6A22438C6A22434C6B6A
:1019100022438C6B22431A430260426922F0070380
:10192000D1E90B2422431A4342610A6942604A68A2
:1019300082608968C16030BD3F801CF07047000044
:101940000249486048680028FCD1704734000020F4
:1019500010B5012000F018F8002806D001F00EF9AB
:10196000BDE81040012000F001B810BD0149086039
:1019700070470000143C014002490A6802430A60B3
:1019800070470000103C0140064A014600201268E2
:10199000044B0A4014331B680B4202D0002A00D0CB
:1019A00001207047003C0140F0B58FB00121582064
:1019B00000F0D4FD0121084600F0E8FD09A800F080
:1019C000CEF9434E0C220B21304600F0B4F90C2224
:1019D0001146304600F0AFF90C220E21304600F0DF
:1019E000AAF90C220F21304600F0A5F90C220021A3
:1019F000304600F0A0F90C220121304600F09BF99E
:101A00000C220421304600F096F90C2205213046C4
:101A100000F091F90C220621304600F08CF94DF6C9
:101A20003300022509908DF829508DF8285009A916
:101A3000304600F02FF94020002409908DF828400E
:101A400009A9304600F026F9224F0C22072138461A
:101A500000F071F90C220821384600F06CF90C22D4
:101A60000921384600F067F90C220A21384600F0B7
:101A700062F94FF4F06009908DF8285009A93846B2
:101A800000F008F90C220721134800F054F98020D7
:101A9000099009A9304600F0FDF80BA807900890BE
:101AA000684600F06BF80120CDE90B45CDE90D0447
:101AB00010200090CDE901540394059468460694E3
:101AC00000F028F80121102000F008F80FB0F0BD58
:101AD000000C024000100240001802404FF020426B
:101AE00051B1102804D052F8800F40F0040009E0F2
:101AF000106E40F0040009E00549102804D052F8A7
:101B0000800F084010607047106E084010667047E4
:101B1000FBFF0F0030B5D0E901121143D0E90323D8
:101B20001A431143426941EA4221826941EA423142
:101B3000C26941F00804D2E9001341EA0321138984
:101B4000127B1B0443EA0262036A1143D3E90025B6
:101B500042EA05221D891B7B2D0445EA03631A43D3
:101B600003684FF02040102B04D040F8804F816074
:101B7000C26030BD04668166C26630BD102101605E
:101B8000002141608160C160016141618161C26980
:101B9000FC211160C2695160C2699160C269D16063
:101BA000026A1160026A5160026A9160006AC16053
:101BB000704700004FF0204202EB800000290168CE
:101BC00002D041F0010101E0014A1140016070477B
:101BD000FEFF0F0030B5D0E901121143D0E9032315
:101BE0001A43114342690368114382691143C26970
:101BF0001143026A1143426A1143826A1143C26A65
:101C00001143026B11434FF0204242F823108168C8
:101C1000082906D1016802EB81010B6843F04003FB
:101C20000B60416BD1E9003443EA04138C688D8961
:101C3000240244EA054423430C8A43EA04530C7DFE
:101C4000896943EA04630B43016802EB81014B603D
:101C5000C16AB1F5804F07D000686FF0704102EBA8
:101C60008000C0F8041130BD816B0068D1E90034F8
:101C700043EA04138C680D8A240244EA0554234382
:101C80000C7D896943EA046302EB80000B43C0F8D2
:101C9000043130BDF0B50023012403270D6804FA98
:101CA00003F21540954242D1D0F800C05E0007FA19
:101CB00006F52CEA050CC0F800C091F804C0D0F875
:101CC00000E00CFA06FC4CEA0E0CC0F800C091F8DB
:101CD00004C0BCF1010F02D0BCF1020F1FD1D0F83B
:101CE00008C02CEA050CC0F808C091F805C0D0F86F
:101CF00008E00CFA06FC4CEA0E0CC0F808C0D0F85C
:101D000004C02CEA020CC0F804C0426891F806C076
:101D10000CFA03FC1FFA8CFC42EA0C024260C26817
:101D2000AA43C260CA79C568B2402A43C2605B1C3C
:101D3000102BB3D3F0BD4B07DB0E9A40C90810B58A
:101D400000EB8100016A0F249C40A1430162016AFB
:101D50001143016210BD41837047018370474FF604
:101D6000FF7101600021017141718171C171704782
:101D7000FEE70029018802D041F4806101E021F4EE
:101D800080610180704702460020938A128B43EAEB
:101D9000024323F07F42914300D101207047002984
:101DA000018802D041F0010101E021F00101018030
:101DB000704700001CB501218C05204600F0F2FBA5
:101DC0000121022000F0CAFB0121022000F0C6FB25
:101DD0000121204600F0F2FB0021204600F0EEFB3E
:101DE0000121480500F0BAFB2013009002208DF875
:101DF00004008DF8050001208DF8060000200C4C31
:101E00008DF8070069462046FFF744FFE014009074
:101E100069462046FFF73EFF04220A212046FFF7CD
:101E20008AFF04220B212046FFF785FF1CBD00001E
:101E3000000402400D4910B5884202D101214C0531
:101E40000AE00B49884202D101218C0504E00949CE
:101E500088420AD10121CC05204600F0AFFB204684
:101E6000BDE81040002100F0A9BB10BD00540040A7
:101E700000580040005C00400029018802D041F475
:101E8000807101E021F48071018070470029018890
:101E900002D041F4007101E021F40071018070472B
:101EA0007FB5044680880D4620F03F06684600F066
:101EB00091FB26490298B0FBF1F189B20E43A6804E
:101EC000228822F001022280214B2A689A421BD8E4
:101ED0005200B0FBF2F080B2042800D20420491C6A
:101EE0002184A083208840F00100208021884FF6C3
:101EF000F5300140A8886A89104308432080A889EA
:101F00002989084320817FBDEB88A3F53F46FF3E2A
:101F100005D102EB4202B0FBF2F080B208E002EB26
:101F2000C20303EB0212B0FBF2F080B240F4804037
:101F3000020501D140F001004FF4967251434FF475
:101F40007A72B1FBF2F140F40040C8E740420F0062
:101F5000A0860100008AC0B2704712B141F00101B1
:101F600001E001F0FE010182704701827047FEE747
:101F70007047000070B50F21C478027801234FF03C
:101F8000E026E4B1124C246804F4E064C4F5E06493
:101F9000C4F30724C4F10405E1404478AC408578DB
:101FA0000D4025430B4C29011155007800F01F010D
:101FB0008B40400906EB8000C0F8003170BD02F094
:101FC0001F008340500906EB8000C0F8803170BDCF
:101FD0000CED00E000E400E02DE9F04186B00121C5
:101FE000472000F0BBFA4F4F0D2204213846FFF77F
:101FF000A2FE0D2206213846FFF79DFE0D22092183
:102000003846FFF798FE0D220A213846FFF793FE67
:10201000454C0D2208212046FFF78DFE0D22092197
:102020002046FFF788FE0D220B212046FFF783FE96
:10203000DFF8F8800D2206214046FFF77CFE0D22D6
:1020400007214046FFF777FE0D2208214046FFF7A3
:1020500072FE0D2209214046FFF76DFE4FF4C2606B
:10206000022500908DF8045003208DF8050000240F
:102070008DF8064001268DF8076069463846FFF75F
:1020800009FEF020009069462948FFF703FE402032
:1020900000908DF804508DF8064069463846FFF7E9
:1020A000F9FD0121880500F07DFA0121022000F0F0
:1020B00055FA04220A214046FFF73DFE04220B2177
:1020C0004046FFF738FE8DF804504FF440608DF81D
:1020D000054000908DF806608DF80740694640463F
:1020E000FFF7D8FD134D2846FFF7A4FE012128462F
:1020F000FFF755FEADF80C404BF6FF70ADF80E0043
:102100003C20ADF810002815ADF812000001ADF824
:1021100014000948029002A92846FFF7C1FE06B044
:10212000BDE8F081000002400008024000040240C7
:1021300000200240005800402030050070B50546E0
:10214000012194B0084600F015FA00242020ADF8D3
:102150004000ADF83C40ADF84440ADF83E40ADF82D
:102160004240ADF84640ADF848400121400400F03F
:10217000F5F9164E3046FFF725FB4FF00070009042
:10218000134801901348CDE902044FF41630CDE90D
:102190000404B014CDE906404000089040110990B5
:1021A00040020A9004200B900320CDE90C040E9409
:1021B000012D02D08020ADF842000FA8FFF7DAFA17
:1021C00069463046FFF790FB14B070BD28640240AA
:1021D000000005507030002070B500F057F9C8209D
:1021E000FFF7AEFB084D00244FF4817605EB840029
:1021F000817835F8240000F059F90220FFF7A0FBA0
:10220000641CB442F2D970BD2014002070B500F0F7
:102210003DF9C820FFF794FB084D00244FF4827667
:1022200005EB8400817835F8240000F03FF90220A6
:10223000FFF786FB641CB442F2D370BD2C1800205B
:1022400070B500F023F9C820FFF77AFB084D002491
:102250004FF4817605EB8400817835F8240000F096
:1022600025F90220FFF76CFB641CB442F2D970BD63
:102270003C1C002070B500F009F9C820FFF760FB96
:10228000084D00244FF4817605EB8400817835F801
:10229000240000F00BF90220FFF752FB641CB4424B
:1022A000F2D970BD4C08002070B500F0EFF8C820DE
:1022B000FFF746FB084D00244FF4827605EB8400BF
:1022C000817835F8240000F0F1F80220FFF738FBA0
:1022D000641CB442F2D370BD580C002070B500F0FD
:1022E000D5F8C820FFF72CFB074D002405EB840030
:1022F000817835F8240000F0D9F80220FFF720FBA0
:10230000641CFD2CF2D370BD5000002070B500F0AD
:10231000BDF8C820FFF714FB074D002405EB84002F
:10232000817835F8240000F0C1F80220FFF708FB9F
:10233000641CEE2CF2D370BD6810002070B500F064
:10234000A5F8C820FFF7FCFA084D00244FF4817669
:1023500005EB8400817835F8240000F0A7F802200E
:10236000FFF7EEFA641CB442F2D370BD44040020BF
:1023700010B5044643F20A0000F008F8207043F25A
:102380000B0000F003F8607010BD00002DE9F0476D
:102390003A4E804642F21074254601213046FFF73E
:1023A0006BFD374F01E06D1E65D339463046FFF7B0
:1023B000EAFC0028F7D000223D213046FFF7CDFD92
:1023C0002546DFF8C09001E06D1E54D349463046E3
:1023D000FFF7D9FC0028F7D008F0FF013046FFF7DF
:1023E000C4FDDFF8A080254608F1020801E06D1E5B
:1023F00041D341463046FFF7C6FC0028F7D02248BB
:10240000018841F48061018001213046FFF734FDED
:10241000254601E06D1E2ED339463046FFF7B3FC4A
:102420000028F7D001223D213046FFF796FD144FDA
:1024300025467F1C01E06D1E1DD339463046FFF74F
:10244000A2FC0028F7D000213046FFF792FC0C4D8B
:102450003F3501E0641E0ED329463046FFF793FC5A
:102460000028F7D001213046FFF710FD3046BDE8C7
:10247000F047FFF76FBDFF20BDE8F0870058004030
:1024800001000300820007001454004010B5112120
:1024900043F2031000F00AF8822143F2080000F032
:1024A00005F8BDE810400A20FFF74ABA2DE9F047C9
:1024B000264E8946074642F21074254601213046D1
:1024C000FFF7DAFCDFF8888001E06D1E3BD3414660
:1024D0003046FFF758FC0028F7D000223C21304658
:1024E000FFF73BFD2546DFF86C8001E06D1E2AD327
:1024F00041463046FFF747FC0028F7D0F9B2304696
:10250000FFF733FD3746134E2546B61C01E06D1E1E
:1025100019D331463846FFF736FC0028F7D0494634
:102520003846FFF722FD01E0641E0CD331463846E1
:10253000FFF729FC0028F7D001213846FFF7A6FC59
:102540000020BDE8F087FF20FBE7000000580040B6
:10255000010003008200070070470000044A0029C0
:10256000116801D0014300E0814311607047000011
:1025700030380240044A0029116801D0014300E0CC
:10258000814311607047000034380240044A00293A
:10259000116801D0014300E08143116070470000E1
:1025A00038380240044A0029116801D0014300E094
:1025B000814311607047000040380240044A0029FE
:1025C000116801D0014300E08143116070470000B1
:1025D0002038024070B5204A1168204C11F00C01DF
:1025E00004D01F4E042903D0082903D004601BE047
:1025F000066019E01849091F0B68C3F380550B6882
:1026000003F03F0315B1B6FBF3F301E0B4FBF3F3C2
:102610000C680968C4F388146343C1F30141491C81
:102620004900B3FBF1F1016011680F2303EA1111B6
:102630000C4B5C5C0168E14041601468072505EAC9
:1026400094241C5D21FA04F48460126805EA523275
:102650009A5CD140C16070BD083802400024F4008B
:1026600040787D012400002070B598B001217820C9
:10267000FFF774FF01210846FFF788FF964E0C22F2
:1026800000213046FFF757FB0C2201213046FFF7AF
:1026900052FB0C2204213046FFF74DFB0C22052192
:1026A0003046FFF748FB0C2208213046FFF743FB7A
:1026B0000C2209213046FFF73EFB0C220A2130464E
:1026C000FFF739FB0C220B213046FFF734FB0C22BD
:1026D00011463046FFF72FFB0C220D213046FFF745
:1026E0002AFB0C220E213046FFF725FB0C220F217E
:1026F0003046FFF720FB4FF63370022516908DF819
:102700005C5003208DF85D0000248DF85E408DF84C
:102710005F4016A93046FFF7BDFA704E0C2200212B
:102720003046FFF708FB0C2201213046FFF703FB80
:102730000C2202213046FFF7FEFA0C22032130461C
:10274000FFF7F9FA0C2204213046FFF7F4FA0C22C5
:1027500005213046FFF7EFFA0C2206213046FFF73D
:10276000EAFA0C2207213046FFF7E5FA0C2208218D
:102770003046FFF7E0FA0C2209213046FFF7DBFA7A
:102780000C220A213046FFF7D6FA0C220B213046E4
:10279000FFF7D1FA0C2211463046FFF7CCFA0C2293
:1027A0000D213046FFF7C7FA0C220E213046FFF705
:1027B000C2FA0C220F213046FFF7BDFA4FF6FF7028
:1027C000169016A93046FFF765FA454E0C220021F7
:1027D0003046FFF7B0FA0C2201213046FFF7ABFA82
:1027E0000C2202213046FFF7A6FA0C2203213046C4
:1027F000FFF7A1FA0C2204213046FFF79CFA0C22C5
:1028000005213046FFF797FA0C2211463046FFF7B4
:1028100092FA0C220D213046FFF78DFA0C220E2180
:102820003046FFF788FA0C220F213046FFF783FA73
:102830004FF23F00169016A93046FFF72BFA294EAB
:102840000C2200213046FFF776FA0C220121304697
:10285000FFF771FA0C2202213046FFF76CFA0C22C6
:1028600003213046FFF767FA0C2204213046FFF7B8
:1028700062FA0C2205213046FFF75DFA0C2209218D
:102880003046FFF758FA40F23F20169016A930461E
:10289000FFF700FA0FA9012031C112941020CDE9F1
:1028A0000240139404940002CDE908401494159456
:1028B000CDE900540FA80794CDE90C400594069487
:1028C0000E900A940B946846FFF784F901210220C8
:1028D000FFF770F918B070BD000C02400010024004
:1028E0000014024000180240002A07D04FF0C843ED
:1028F0005B5A891C20F8023B521EF7D1704700003A
:1029000010B5002A08D000BF4FF0C84330F8024B82
:102910005C52891C521EF7D110BD704710B500F0F3
:10292000DBFA002010BD00000CB500202749019003
:1029300000900A6842F480320A604FF4A0630A688B
:1029400002F400320092019A521C0192009A12B9CC
:10295000019A9A42F3D10A68920334D5012000907B
:102960001A484030026842F08052026018480268FB
:1029700042F4804202601548083002680260026832
:1029800042F400420260026842F4A0520260031F57
:10299000104A1A600A6842F080720A600A6892015E
:1029A000FCD50D4A40F205611160016821F0030178
:1029B0000160016841F0020101600168C1F3810119
:1029C0000229FAD10CBD00900CBD00000038024075
:1029D0000070004019544007003C0240704700005E
:1029E000124810B5016841F4700101601048016897
:1029F00041F0010101600E4A0021083211600268B5
:102A00000C4B1A400260031D0B4A1A60026822F444
:102A10008022026006480C300160FFF785FF034901
:102A20004FF000608039086010BD000088ED00E0C4
:102A300000380240FFFFF6FE10300024164910B5A2
:102A40000968164A184CB1FBF2F1154A491E11806B
:102A500000EB4001C1EBC0104FF0FF3101EB8001F2
:102A600010484160A72101800021018141808172CD
:102A70000146204600F044F80121204600F016F8F7
:102A800001221146204600F032F82046BDE81040F1
:102A9000012100F00EB8000000000020001BB7006C
:102AA000140000206424002000040040C943018277
:102AB00070470029018802D041F0010101E021F0B6
:102AC00001010180704708B501210220FFF76AFD6E
:102AD0001D208DF8000000208DF8010001208DF8E8
:102AE00002008DF803006846FFF744FA08BD002A8B
:102AF000828901D00A4300E08A4382817047000046
:102B000030B50288164B174C98420DD0A0420BD01E
:102B1000B0F1804F08D0144DA84205D0134DA84203
:102B200002D0134DA84203D122F070054A882A43EF
:102B3000104DA84206D0104DA84203D022F4407593
:102B40000A892A4302804A68C2620A88028598423A
:102B500001D0A04201D1897A01860121818230BD54
:102B60000000014000040140000400400008004053
:102B7000000C004000100040001400402DE9F0411E
:102B80000F48FDF7F3FD054600240E4E0C4F04E000
:102B9000395D304600F082F8641CAC42F8DB01215C
:102BA000304600F07BF8084D00244FF41627295DCD
:102BB000304600F073F8641CBC42F8DBBDE8F081DD
:102BC000702C0020004C0040703000200246002095
:102BD00012880A4200D00120704700007FB50446E9
:102BE000008A0D4620F44051E88808432082A089DD
:102BF00041F20C618843A9882A8911436A890243FA
:102C00001143A181A08A20F44071A8890843A082C1
:102C10006846FFF7DFFC1D48844202D01C4884420E
:102C200001D1039800E00298A1890904002900EB72
:102C3000C00101EB0010296802DA4FEA410101E00E
:102C40004FEA8101B0FBF1F26420B2FBF0F14FEAF0
:102C500001114FEA11136FF018056B4302EB830269
:102C6000A3891D044FF0320306D503EBC202B2FB69
:102C7000F0F000F0070005E003EB0212B2FBF0F009
:102C800000F00F00084320817FBD000000100140CC
:102C9000001401408088C0F308007047C1F30801A8
:102CA00081807047FEE7000008B5104D104C4FF4CE
:102CB000806610A10D48FDF7E8FCA060208880B276
:102CC000FFF7BCFE0120FEF739FD0120FEF754FEA0
:102CD000009509A231460A48E368FDF70DFBE0685C
:102CE000401CE06000F020F8E3E7000070280020BE
:102CF0003C000020772B000025645F257300000056
:102D0000702C002070B5074D0446C1B22846FFF76D
:102D1000C5FF40212846FFF759FF0028F9D020467B
:102D200070BD0000004C00402DE9F0412048FDF747
:102D30001DFD054600241F4E1D4F04E0395D304641
:102D4000FFF7ACFF641CAC42F8DB00271A4C06E02E
:102D50002A4601211948A368FDF72FFC7F1CAF42CA
:102D6000F6DB02220021A068FDF788FBA068FDF7D2
:102D700001FC054600221146A068FDF77FFBA9B2C1
:102D80003046FFF78BFF012229460D48A368FEF766
:102D9000A4FAA068FDF7A0FC0024094F04E0395D07
:102DA0003046FFF77BFF641CAC42F8DDBDE8F081E4
:102DB000702C0020004C00403C00002070300020AF
:102DC000702400201FB500244FF4E1300090ADF8CE
:102DD00008400C20364DADF80440ADF80A00ADF8BF
:102DE0000640ADF80C4069462846FFF7F7FE31482B
:102DF000FDF776FAFFF738FCAE15EF143246394688
:102E00002D48FFF77DFD324639462C48FFF76CFD13
:102E10002B492046284A294B8C600BE033F8106080
:102E200032F81070BE4202D04E68761C4E60401CD4
:102E3000FF2802D84E68002EF0D08860FEF7B4FD5F
:102E4000FFF741FEFEF7B6FF1E48FFF7C3FB1D4824
:102E500064214068B0FBF1F0B0F1807F0BD220F02C
:102E60007F414FF0E020491E4161174AF021117067
:102E7000846107210161FFF7AFF811480C30FFF7BB
:102E800077FA12490120087011490870FEF726FCF4
:102E9000FEF7CAFB01210F48FEF78AFC0120FEF76E
:102EA0005BFC2846FFF7F6FEFFF738FDF9E7000068
:102EB000004C0040803000085420002054220020A4
:102EC000140000205424002023ED00E034000020F2
:102ED00035000020286402402DE9F8433DA000247D
:102EE000006800902546264664213B48FDF769FCB2
:102EF00064213A48FDF765FCDFF8E490394F384625
:102F0000FFF7C8FE20B1012009F80400641CF6E7B1
:102F100035A13348FDF778FCE846A8B130492E4882
:102F2000FDF700FC32A12C48FDF73FFC2A4932A0F6
:102F3000FDF7D6F95FF00004384618F80410FFF7E3
:102F4000ADFE641C032CF7DB3C462046FFF7A2FED7
:102F500020B1012009F805006D1CF6E72048FDF7B7
:102F60007FFA2C4D014628602BA0FDF7B9F928689F
:102F700040B1002547462046795DFFF78FFE6D1C66
:102F8000032DF8DB4F4625462046FFF783FE18B198
:102F90000120B855761CF6E713A11148FDF734FC63
:102FA000002815D10E4923A0FDF79AF900244646C2
:102FB0002846315DFFF772FE641C032CF8DB01210B
:102FC0002048FEF7F5FB0120FEF7C6FBFFF76CFE7D
:102FD000BDE8F8836F6B000070280020702C002083
:102FE00070240020004C0040737461727400000073
:102FF0002E6A706700000000726563656976654639
:10300000696C65204E616D65202074656D703D258D
:10301000730000003C0000207265636569766549B5
:103020006E74657276616C5F74696D65723D25645E
:10303000000000007265636569766553544152541F
:103040003D2573002864024010B500290AD0087895
:10305000002807D005487844FDF7D6FB002801D0AA
:10306000002010BD0248784410BD0000A6000000FA
:103070009E0000004FF04070E1EE100A7047000023
:103080000A0D5553415254205072696E74662045A2
:1030900078616D706C653A207265746172676574F1
:1030A000207468652043206C6962726172792070B7
:1030B00072696E74662066756E6374696F6E2074D3
:1030C0006F207468652055534152540A0D003A74BC
:1030D00074003A7474003A74740000000C320008F2
:1030E0000000002054200000C40100080C39000832
:1030F000542000207C7709002802000810010000FD
:1031000043000000F8FFFFFF0040404040404040C7
:1031100040404141414141404040404040404040AA
:10312000404040404040404040050202020202024E
:10313000020202020202020202202020202020209D
:1031400020202002020202020202909090909090B1
:10315000101010101010101010101010101010106F
:1031600010101010020202020202888888888888E3
:1031700008080808080808080808080808080808CF
:1031800008080808020202024000000000000000D7
:10319000000000000000000000000000000000002F
:1031A000000000000000000000000000000000001F
:1031B000000000000000000000000000000000000F
:1031C00000000000000000000000000000000000FF
:1031D00000000000000000000000000000000000EF
:1031E00000000000000000000000000000000000DF
:1031F00000000000000000000000000000000000CF
:103200000000000000000000000000005006007AEE
:10321000030A0001000A110102030406070809005D
:1032200001211C011A2061441008033111000830EB
:10323000820412420C100803001730FF001804101B
:103240008E34301A003530110036304600373013D6
:10325000000831010030362E003236E200333623CA
:10326000002136E0000437A00003375A00153778F4
:1032700000173701000B37600005371A00053902C7
:10328000000639100001390A0031371200003608F3
:1032900000013633002D306000203652001B3720ED
:1032A000001C475000183A0000193AF80035361C47
:1032B000003436400022360100013C3400043C2832
:1032C00000053C9800063C0000073C080008081078
:1032D0001A093C1C000A3C9C000B3C400020384171
:1032E00000213807001438310015041700380C117C
:1032F00004120204100E0338040004380A000538D2
:103300003F000624100F07389F00083802000938D4
:1033100080000A38A4100D38E0000C380B000D387E
:103320001C000E4410060F38B0001038100611387B
:1033300010001208102A1338060018360000123642
:10334000290008376200093752000C370300023A9F
:103350000300033AD800083A0100093A27000ABCE2
:1033600010060B3AF6000E1810060D3A0400140869
:1033700012152010060140020004041300309014BE
:1033800005301C000450100A0630C3000E305800EF
:103390002E141007004330001F506810114703001F
:1033A000074404000B4635000C46220024A41026D6
:1033B0000050A7000150A3008051FF008151F2008E
:1033C000825100008351140084512500855124004E
:1033D0008651090087041288041032895175008AC9
:1033E0005154008B51E0008C51B2008D5142008E3F
:1033F000513D008F515600905146009151F8009276
:10340000510400935170009451F0009504100A96F5
:103410005103009751010098181006995112009A13
:1034200008129B64143F9C5106009D5182009E51DE
:1034300038008053020081531C0082535A0083538A
:10344000060084530A0085537E0086538800875304
:103450007C0088536C00895310008A5301008B5301
:1034600098000053DC10055330000214100603537B
:10347000000004101205101206081006075316006B
:103480000908120A1010060B5304000C5010528049
:10349000540100815408008254140083542800848D
:1034A000545100855465008654710087547D00880E
:1034B000548700895491008A549A008B54AA008C36
:1034C00054B8008D54CD008E54DD008F54EA009026
:1034D000541D00805502008355400084551000891A
:1034E0000410138A5500008B55F800005823000182
:1034F00058150002588C110412040C1205141807F8
:1035000006580C0007584810055805000904120A0F
:103510000C120B14100E0C5807000D5803000E5817
:1035200000000F0412100C12111412120412130CCA
:1035300012141412150412160C121714100618582F
:103540000B00193C121A44121B04121C14121D14F5
:10355000100E1E582A001F58160020581100210472
:103560001222781012235829002458BF002558AF82
:103570000026589F002708102A2858DF0029586F76
:10358000002A588E002B58AB002C589E002D587FD7
:10359000002E584F002F5889003058860031589817
:1035A000003224123314100E34586E0035587B004C
:1035B00036587E00371410063858DE003954123A57
:1035C00050123B0818063C58EC00254C100A0F3AE4
:1035D0003000103A28001B081C0C1E3A2600113A35
:1035E00060001F3A14D4033E02C4031A08F81C04F6
:1035F000093840000319B40F1138F0F4031E7FF4AA
:10360000031804FC003D985C04343018F8033E486D
:10361000F8030C04EB3D3032FC03AD080410041435
:103620003811640E3B1110040C04270040011404EF
:1036300010122750010028500400295090002A50F1
:1036400005002B087C042C50032C0410062D506C14
:10365000002E200C10112F502C00345080003550BB
:103660002A003650144404DC062300055036480472
:103670000E3B9048040DFF14040DCB14040C0621DE
:103680002100414701FC071E6904045E14FC075C2D
:1036900006360031360E04040E431204049C041353
:1036A0003A4308040C061913003636030C040E15B1
:1036B0000708080E152708089EFA0C041E060808BD
:1036C0001EA9080815EC1D04051E0A10081C040B91
:1036D00038D00C0415EC1F38640C041E020808DEF8
:1036E000E40C040E1504F8031E0208085EE4080842
:1036F0001EBC08081D54081F3A72F8031E01F80387
:103700001E02F8031E020808DEE408085E00F40347
:103710000E11FF08083E02DC037C040E44000C0876
:103720001C0427481610085E0410080E7B8310083E
:103730003C0481531E14081C0482535B10080EB114
:1037400008FC031E14FC031E0FFC031E0FFC031ECB
:103750001210080E152610081E0D10080E11081064
:1037600008DE0910085E0110081E0810089E0D10E2
:10377000081E0610081E0810081E0EFC031E291045
:1037800008DE17FC031E28FC031E46FC031E261041
:10379000081E0810081E2610081E6410081E261099
:1037A000081E2410081E2210081E2410081E2410B3
:1037B000081E0610081E2210081E4010081E421087
:1037C000081E2410081E2610081E2410081E221091
:1037D000081E2210081E2610081E4410081E241061
:1037E000081E2610081E2810080C062342003D580B
:1037F000CE00041407024605000346A00C07254628
:1038000004000546380C040E9D130C047E26B407F4
:103810001E00F4081C040138500C041DE8041F3875
:10382000B20C0419881F38EF0C041E050C041EF29C
:103830000C045E07140C1D840B1F383818081E0971
:103840000C041EC418081E0418080E11600C041E77
:1038500004140C5E2B0C041E120C041D68041DE8DD
:10386000071E036C094D0C045E500C049E18140CCA
:103870001E0404085E6000080E37060C040DFF10DD
:10388000040DFF10040D7010040D7CBC03ADD40BAF
:103890000E1100D00F1E0AD00C1E20BC031E07C83C
:1038A000070E1D98D40BADBC039E64BC031E07C05D
:1038B0000B0E11B0D00F1E06BC031E08BC031E0762
:1038C000C00B0E3BB0BC030E9137BC030DFFB80319
:1038D0000DFFC8070DFFD40B0DFFD40B0DFFC40760
:1038E0000DFF0C040DFFD40B0DFFD40B0DFF1004C6
:1038F0000DFF10040DC210040DFF280C0DFF280C45
:0C3900000DFF0C040D350C04A1010000AB
:04000005080002A14C
:00000001FF
